:100000000C94F7000C941F010C941F010C941F0119
:100010000C941F010C941F010C941F010C941F01E0
:100020000C941F010C941F010C941F010C941F01D0
:100030000C941F010C941F010C941F010C941F01C0
:100040000C9479070C941F010C94E9070C94C307D6
:100050000C941F010C941F010C941F010C941F01A0
:100060000C941F010C941F0163825363000108006C
:10007000060400014500008200004000204854545E
:10008000502F312E3020353033204D79205365727A
:1000900076696365200D0A436F6E74656E742D5426
:1000A0007970653A20746578742F68746D6C0D0AE8
:1000B00052657472792D41667465723A203630301B
:1000C0000D0A0D0A3C68746D6C3E3C686561643EC7
:1000D0003C7469746C653E5365727669636520543F
:1000E000656D706F726172696C7920556E617661B1
:1000F000696C61626C653C2F7469746C653E3C2F61
:10010000686561643E3C626F64793E3C68333E548E
:10011000686973207365727669636520697320630B
:10012000757272656E746C7920756E617661696C3A
:1001300061626C653C2F68333E3C703E3C656D3EB1
:10014000546865206D61696E2073657276657220F2
:1001500069732063757272656E746C79206F666660
:100160002D6C696E652E3C6272202F3E506C65616D
:1001700073652074727920616761696E206C6174A7
:1001800065722E3C2F656D3E3C2F703E3C2F626F9A
:1001900064793E3C2F68746D6C3E000000000024C2
:1001A0000027002A0000000000250028002B000482
:1001B000040404040404040202020202020303030E
:1001C0000303030102040810204080010204081008
:1001D00020010204081020000000080002010000B5
:1001E000030407000000000000000000110E1124AD
:1001F0001FBECFEFD8E0DEBFCDBF11E0A0E0B1E081
:10020000E0E3FDE102C005900D92AE38B107D9F7E9
:1002100024E0AEE8B1E001C01D92A338B207E1F7D7
:1002200010E0C7EFD0E004C02197FE010E94740ED9
:10023000C63FD107C9F70E941B080C94960E0C9478
:100240000000CF93DF932091E2032223C1F0FC0151
:1002500020812223A1F0C2EED3E0AEEDB3E09C01F9
:100260002C5F3F4F899141919D918427892339F4D7
:10027000E217F307B9F781E0DF91CF91089580E0AD
:10028000FBCF90E0FC01E952FE4F2491FC01ED53BD
:10029000FE4F3491FC01E155FE4FE491EE23C9F08D
:1002A000222339F0233001F1A8F4213019F1223052
:1002B00029F1F0E0EE0FFF1FEB55FE4FA591B49131
:1002C0008FB7F894EC91611126C030953E233C9392
:1002D0008FBF08952730A9F02830C9F0243049F79E
:1002E000809180008F7D03C0809180008F77809304
:1002F0008000DFCF84B58F7784BDDBCF84B58F7D61
:10030000FBCF8091B0008F778093B000D2CF8091E7
:10031000B0008F7DF9CF3E2BDACFCF93DF9390E003
:10032000FC01ED53FE4F249181559E4FFC018491B9
:100330008823D1F090E0880F991FFC01E556FE4F0D
:10034000A591B491FC01EB55FE4FC591D49161117B
:100350000EC09FB7F8948C91E22FE0958E238C937A
:100360002881E223E8839FBFDF91CF9108958FB763
:10037000F894EC91E22BEC938FBFF6CF3FB7F89453
:100380008091DA039091DB03A091DC03B091DD034F
:1003900026B5A89B05C02F3F19F00196A11DB11DE0
:1003A0003FBFBA2FA92F982F8827BC01CD01620F1C
:1003B000711D811D911D42E0660F771F881F991FD7
:1003C0004A95D1F708952FB7F8946091D6037091AC
:1003D000D7038091D8039091D9032FBF0895AF928E
:1003E000BF92CF92DF92EF92FF920F931F93CF9322
:1003F000DF936C017B018B01040F151FEB015E0184
:10040000AE18BF08C017D10759F06991D601ED9118
:10041000FC910190F081E02DC6010995892B79F7B7
:10042000C501DF91CF911F910F91FF90EF90DF9069
:10043000CF90BF90AF900895FC01538D448D252F30
:1004400030E0842F90E0821B930B541710F0CF966E
:10045000089501970895FC01918D828D981761F0A0
:10046000A28DAE0FBF2FB11D5D968C91928D9F5FB7
:100470009F73928F90E008958FEF9FEF0895FC0196
:10048000918D828D981731F0828DE80FF11D858D49
:1004900090E008958FEF9FEF0895FC01918D228DDC
:1004A000892F90E0805C9F4F821B91098F73992761
:1004B000089586EE93E00E944D0221E0892B09F415
:1004C00020E0822F089580E090E0892B29F00E949F
:1004D000590281110C9400000895FC01A48DA80F0D
:1004E000B92FB11DA35ABF4F2C91848D90E0019676
:1004F0008F739927848FA689B7892C93A089B18996
:100500008C91837080648C93938D848D981306C036
:100510000288F389E02D80818F7D80830895EF929A
:10052000FF920F931F93CF93DF93EC0181E0888FAD
:100530009B8D8C8D98131AC0E889F989808185FF7D
:1005400015C09FB7F894EE89FF896083E889F9891F
:1005500080818370806480839FBF81E090E0DF9121
:10056000CF911F910F91FF90EF900895F62E0B8D74
:1005700010E00F5F1F4F0F731127E02E8C8D8E112F
:100580000CC00FB607FCFACFE889F989808185FF96
:10059000F5CFCE010E946D02F1CFEB8DEC0FFD2F58
:1005A000F11DE35AFF4FF0829FB7F8940B8FEA8951
:1005B000FB8980818062CFCFCF93DF93EC01888D60
:1005C0008823B9F0AA89BB89E889F9898C9185FDCE
:1005D00003C0808186FD0DC00FB607FCF7CF8C915C
:1005E00085FFF2CF808185FFEDCFCE010E946D02A5
:1005F000E9CFDF91CF9108958091F1019091F201BF
:10060000982789279827449720910F0230E044E0EB
:10061000359527954A95E1F7220F331F220F331F97
:10062000821B930B97FF02C090E080E00895209119
:1006300005023091030230930502209303022091BA
:100640000602309104023093060220930402E1EE88
:10065000F1E021A5820F911D25A585A7662381F0D4
:1006600021A7892F9927319721E0ED3DF20789F7DE
:10067000109213021092140280E580930F020895E5
:1006800011A6EFCF0F931F93CF93DF9370E06F51BD
:100690007E4F8A01075F1F4F213029F0223031F44D
:1006A0008A010250110930E020E003C000E010E0B0
:1006B0009801EB01FA01E230F10558F0A991B991E6
:1006C000BA27AB27BA270A0F1B1F211D311D3297EE
:1006D000F2CFFA01EE7F6E0F7F1F4E175F0769F0B2
:1006E000FB01408150E070E060E0762F652F542FD1
:1006F0004427040F151F261F371FA90166277727D8
:10070000411551056105710519F022273327F1CFF5
:1007100000951095E82FF0E0EF51FE4F1083018314
:10072000DF91CF911F910F910895E1EEF1E0108ECE
:10073000118E80E4848B158A868B20E044E150E0A2
:100740006EE088E10C9442038EBD0DB407FEFDCF30
:10075000089561E0809191010E944101789408958B
:10076000F89460E0809191010C9441010F931F93E4
:10077000CF93DF93EC018B010E94B0032097B9F077
:100780008AE30E94A4031EBCF801CE01019739F050
:100790000DB407FEFDCF2EB51EBC2193F7CF2197D8
:1007A000C00FD11F0DB407FEFDCF8EB58883DF913A
:1007B000CF911F910F910C94A9031F93CF93DF93B7
:1007C000182FC62FD42F0E94B0038C2F8F71812B2E
:1007D0000E94A4038D2F0E94A403DF91CF911F914B
:1007E0000C94A903CF93C82FC076809190018C17E9
:1007F00099F043E06FE180EA0E94DD03C09390012D
:100800004C2F50E085E0559547958A95E1F76FE1CB
:1008100080E8CF910C94DD03CF910895CF93DF93BF
:10082000C82FD62F0E94F2034D2F6C2F80E4DF914A
:10083000CF910C94DD03CF93DF93C82FD72F0E9465
:100840000E046D2F81E08C0FDF91CF910C940E047C
:10085000CF93C82F0E94F2030E94B0038C2F8F7198
:100860000E94A40380E00E94A403C7FF03C080E0AD
:100870000E94A403CEB50E94A9038C2FCF910895A6
:10088000CF93DF93EC0140E86FE180E80E94DD0345
:1008900040E86FE180EA0E94DD034AE06CE180EA13
:1008A0000E94DD0360E07CE082E00E941B04BE0148
:1008B000745F86E00E941B0440E060E08AE70E94CB
:1008C000DD030E94B0032097B1F08AE70E94A403E1
:1008D0008091E1018EBDE2EEF1E0CF51DE4FEC17E9
:1008E000FD0731F081910DB407FEFDCF8EBDF7CF2E
:1008F0000DB407FEFDCF0E94A90348E06FE180E838
:100900000E94DD03D0E0C0E08CE10E9428048A70E0
:1009100029F42196C83E83E0D807B1F78CE10E9404
:10092000280481FD03C0C83ED34039F448E06FE19C
:1009300080EADF91CF910C94DD03DF91CF91089590
:100940000F931F93CF93DF938C018896C1EED1E074
:10095000988B898B0E9495031AAA1BAAA801445E52
:100960005F4F22E06AE182E30E944203C801C6961B
:10097000DF91CF911F910F910C944004CF93DF939F
:10098000EB01682F84ED0E940E04BE0186ED0E94EB
:100990001B048AEE0E94280480FDFBCFDF91CF91DB
:1009A0000895CF92DF92EF92FF920F931F938634B8
:1009B000910568F120910402233449F5C0900F029B
:1009C000D0901002E0901102F09012020091A30169
:1009D0001091A4012091A5013091A601C016D10665
:1009E000E206F306A1F4EBEFF2E08F519E4F9F0178
:1009F0002E5F3F4F41815081553319F45281651765
:100A000071F0F901E40FF11DE817F90780F380E0B8
:100A10001F910F91FF90EF90DF90CF90089581E0AC
:100A2000F7CFE0918E01F0918F019F012F5F3F4F33
:100A300030938F0120938E0180830895FF920F934E
:100A40001F93CF93DF93162FF42E052F0E941105CD
:100A5000812F0E941105CF2DD02F115020F08991A8
:100A60000E941105FACFDF91CF911F910F91FF9056
:100A70000895FC0101900020E9F73197AF01481B70
:100A8000590BBC0186EE93E00C94EF018F929F927C
:100A9000AF92BF92CF92DF92EF92FF921F93CF93CC
:100AA000DF93CDB7DEB7A1970FB6F894DEBF0FBEC8
:100AB000CDBFD62E172F0E943905ED2CF12E10E058
:100AC0008AE0882E912CA12CB12CF70121917F0175
:100AD00030E050E040E019A26E01F1E2CF0ED11CEF
:100AE000CA01B901A50194010E94470E605DF6019B
:100AF00062936F01211531054105510589F7309742
:100B000019F0CF010E943905133029F06EE286EE0C
:100B100093E00E948F021F5F1430B9F688E491E0E1
:100B20000E943905A1960FB6F894DEBF0FBECDBF67
:100B3000DF91CF911F91FF90EF90DF90CF90BF900A
:100B4000AF909F908F900895DC0196E0FB0101909B
:100B50000D929A95E1F70895CF93DF93EB0144E06E
:100B600050E0BC018DEF91E00E94890E892B49F481
:100B700067EF71E0CE010E94A40581E0DF91CF9183
:100B8000089580E0FBCFBC0181EE91E00E94A405B6
:100B900064EB71E087EE91E00C94A405DC0194E035
:100BA000FB0101900D929A95E1F708950F931F9321
:100BB000CF938C0182E491E00E94C305E1EEF1E065
:100BC00088E08487C6E0C58748E050E06CE670E0C6
:100BD0008FEE91E00E943E0EE1E0F2E0DF011D9217
:100BE000CA95E9F764EB71E087EF91E00E94A405F4
:100BF000B80187E092E00E94CE0562EE73E08DEFCF
:100C000091E00E94CE058AE290E0CF911F910F9172
:100C10000C94400487EE91E00E94C3056BEF71E0F5
:100C20008FEF91E00E94CE0562EE73E08BEF91E0D2
:100C30000E94CE050C949503262F2061209310026C
:100C4000643021F0009711F481E090E061E00E94AF
:100C500017031092F10188E28093F2010E940A06C4
:100C600084E0809311021092120222E04CE150E0E5
:100C70006AE182E30E94420386E390E00C94400420
:100C8000CF93DF93EB010E94C305BE018FEF91E08C
:100C90000E94CE0562EE73E08BEF91E0DF91CF9181
:100CA0000C94CE05EF92FF920F931F93CF93DF9397
:100CB0008C01E1EEF1E086E191E0DF019C011D9203
:100CC00021503040E1F78091B301C2E4D1E083309C
:100CD00011F4CEE9D1E0CE010E942101BE018823AA
:100CE00009F4ACC08EEB91E00E9440068881807FC1
:100CF000803E91F088819981AA81BB818F3F9F4F6F
:100D0000AF4FBF4F49F044E050E0BE018AEB91E0A5
:100D10000E94890E892B31F462E471E081EE91E04A
:100D20000E94A40588E08093ED011092EE0149E055
:100D300050E064E770E08FEE91E00E943E0E10926A
:100D4000F10181E18093F8011092050283E4809320
:100D500006021092030284E48093040210920702B8
:100D60001092090210920A0262E471E081EE91E0B1
:100D70000E94A40581E080930B0280930C0286E020
:100D800080930D028091A3019091A401A091A501EF
:100D9000B091A60180930F0290931002A0931102CC
:100DA000B0931202C091B301C33031F462EE73E02C
:100DB00087E192E00E94CE0564EB71E087E292E069
:100DC0000E94A40587EF92E090938F0180938E019B
:100DD000E8E6F0E084910E941105E9E6F0E08491F4
:100DE0000E941105EAE6F0E084910E941105EBE60D
:100DF000F0E084910E94110585E30E94110581E0D5
:100E00000E94110583E0C11101C081E00E9411051B
:100E10008DE30E94110587E00E94110581E00E9488
:100E2000110584EBE82E81E0F82EC7E0C15049F0AF
:100E3000D7018D917D010E941105F8CF84EC91E0DE
:100E400053CF80910001882371F060E071E0FB01D5
:100E500001900020E9F7BF016150714040E051E08E
:100E60008CE00E941E050115110559F0A80164E0EF
:100E700082E30E941E054EE951E064E086E30E9491
:100E80001E0587E30E94110583E00E94110581E0A1
:100E90000E94110583E00E94110586E00E94110561
:100EA0008FEF0E941105C0918E01D0918F01CB5020
:100EB000D240CE014C969093F1018093F2010E94B2
:100EC0009503CE0108969093070280930802AE0125
:100ED000405F5F4F21E06AE188E20E944203CE0159
:100EE0008A96DF91CF911F910F91FF90EF900C9414
:100EF00040041F920F920FB60F9211242F933F932D
:100F00008F939F93AF93BF938091D6039091D70314
:100F1000A091D803B091D9033091D50323E0230FDA
:100F20002D3758F50196A11DB11D2093D50380934F
:100F3000D6039093D703A093D803B093D90380919D
:100F4000DA039091DB03A091DC03B091DD030196FD
:100F5000A11DB11D8093DA039093DB03A093DC0302
:100F6000B093DD03BF91AF919F918F913F912F91EE
:100F70000F900FBE0F901F90189526E8230F029632
:100F8000A11DB11DD2CF1F920F920FB60F92112447
:100F90002F933F934F935F936F937F938F939F9381
:100FA000AF93BF93EF93FF9386EE93E00E946D02A1
:100FB000FF91EF91BF91AF919F918F917F916F9131
:100FC0005F914F913F912F910F900FBE0F901F9007
:100FD00018951F920F920FB60F9211242F938F9393
:100FE0009F93EF93FF93E091F603F091F7038081D5
:100FF000E091FC03F091FD0382FD1BC09081809184
:10100000FF038F5F8F7320910004821741F0E091FE
:10101000FF03F0E0EA51FC4F958F8093FF03FF91AF
:10102000EF919F918F912F910F900FBE0F901F9076
:1010300018958081F4CFCF93DF9300D000D000D0FB
:10104000CDB7DEB7789484B5826084BD84B5816005
:1010500084BD85B5826085BD85B5816085BD809183
:101060006E00816080936E001092810080918100FB
:1010700082608093810080918100816080938100F3
:10108000809180008160809380008091B1008460B5
:101090008093B1008091B00081608093B000809116
:1010A0007A00846080937A0080917A0082608093D5
:1010B0007A0080917A00816080937A0080917A0032
:1010C000806880937A001092C100E091F603F0915D
:1010D000F70382E08083E091F203F091F303108242
:1010E000E091F403F091F5038FEC80831092FE03FE
:1010F000E091FA03F091FB0386E08083E091F8032E
:10110000F091F903808180618083E091F803F09190
:10111000F903808188608083E091F803F091F903FE
:10112000808180688083E091F803F091F9038081E9
:101130008F7D80838BE491E00E94390588E491E003
:101140000E9439051092DE0187E390E0C12CD12C7A
:101150007601C3940097C1F0FC0123E0F595E79573
:101160002A95E1F7EE56FE4F282F2770B701A6010A
:1011700004C0440F551F661F771F2A95D2F72081A0
:10118000242B20830197E6CF68E271E084EB91E0A5
:101190000E94A40584EF91E090939A0180939901B5
:1011A0000CB406FC25C061E08AE00E948D0161E07C
:1011B0008AE00E94410161E08BE00E948D0161E0C4
:1011C0008DE00E948D0160E08CE00E948D0161E065
:1011D0008BE00E94410160E08BE00E94410160E0F1
:1011E0008DE00E94410180E58CBD8DB581608DBD93
:1011F0008AE08093910161E00E948D010E94A90321
:101200004FEF60E08FEF0E94DD030E94BE016B0193
:101210007C0192E0892E912CA12CB12C0E94BE0160
:101220006C197D098E099F09683E734081059105FF
:10123000A8F328EEC20E23E0D21EE11CF11C8A9412
:1012400089288A288B2829F0812C912C5401839499
:10125000E5CF0E94B0038DE10E94A40380E00E94CC
:10126000A4031EB50E94A903112399F370E060E066
:1012700088E00E941B0470E060E08CE00E941B0488
:101280006FEF7BE08AE00E941B0460E07CE084E07A
:101290000E941B046FEF71E186E00E941B0466E769
:1012A00074E084E10E94BE0461EB88E30E940E04B6
:1012B0006FE370E388E20E941B0469EF77EF80E33D
:1012C0000E941B0461E080EC0E940E0442E362EC89
:1012D00080E80E94DD0362E17CE086EC0E941B0452
:1012E00062E184EC0E940E046CED75E08AEC0E94D1
:1012F0001B046091B40184EE0E940E046091B5015C
:1013000085EE0E940E046091B60182EE0E940E04EA
:101310006091B70183EE0E940E046091B80180EEE7
:101320000E940E046091B90181EE0E940E0460E0FB
:1013300071E080E10E94BE048FE10E94F20340EC64
:101340006BE180E80E94DD0344E06FE180E80E94E9
:10135000DD0382E70E942804863008F08F5F811148
:1013600008C087E591E00E94390588E491E00E9479
:1013700039051092DE0164E271E082EE93E00E9492
:10138000CE051092DC011092DB0181E08093DD013B
:1013900060E271E087ED91E00E94CE05E2EEF3E0BD
:1013A0002EED33E04AEB51E09191D9018D919D01F1
:1013B0008095892BDA018D93AD01B3E0E63EFB0702
:1013C00099F762EE73E08CE791E00E94460567EDC5
:1013D00071E082E891E00E94460562ED71E088E8E4
:1013E00091E00E94460514E0E12EFF24F39403E00F
:1013F000702EECE26E2EF0E65F2EA8E73A2EB6E0F5
:101400004B2E80919D01882379F060919B01709112
:101410009C016115710509F030C16FEF7BE08CE034
:101420000E941B0410929D0189E30E94280410E091
:1014300000E08823C1F160919B0170919C0180E0E4
:101440000E941B04BE016F5F7F4F86E090E00E9408
:10145000B60389819A8190939C0180939B018D8131
:101460009E818C010078112787FF12C08B819C819F
:1014700004970091990110919A0101501109801768
:10148000910708F48C0161EE71E0C8010E94B60377
:10149000F801EF51FE4F1082F0929D0140E46EE1A1
:1014A00080E80E94DD038091DE01882369F080914D
:1014B000B301823009F4EAC008F0E2C0882309F4DD
:1014C0006BC1813009F488C10115110509F015C2FD
:1014D0008091DD01857029F18091DB019091DC0123
:1014E000892BF9F461E184ED0E940E0461E082ED44
:1014F0000E940E048AEE0E94280480FDFBCF60E06B
:1015000082ED0E940E0489ED0E94280482FF09C02A
:1015100087ED91E00E94D6058091DD01886080937F
:10152000DD018091DB019091DC0101969093DC015B
:101530008093DB018091D601813009F069C08091F0
:10154000DD0181FF65C082E08093D60180912F018B
:101550008F5F80932F01182F1F718CEC91E00E94F8
:1015600021016CEC71E0882309F4C4C18EEB91E099
:101570000E94400608E00093ED011092EE0149E060
:1015800050E064E770E08FEE91E00E943E0E6092C2
:10159000F2014092F8010E94950310920502109208
:1015A00006028BE08093030210930402E7E0F2E06E
:1015B000DF011D920A95E9F780912E0180930902BF
:1015C0008D5F80932E0150920F0282E08093100273
:1015D00070921102109212021092130210921402D1
:1015E000109215021092160280931702E0921802D0
:1015F0008093190286E280931A0222E040E250E0D2
:101600006AE182E30E9442038AE390E00E94400480
:1016100082ED91E00E942101882371F08091D10137
:1016200081110AC08091D001811106C082ED91E044
:101630000E94D605F092D0018CEC91E00E9421012D
:10164000882371F08091CB0181110AC08091CA0179
:10165000811106C08CEC91E00E94D605F092CA017F
:1016600080E090E0892B09F4CCCE0E9459028823B7
:1016700009F4BFCE0E940000BCCE61507109CFCEEC
:10168000833009F455C0843009F01ECF65E0C801ED
:101690000E94D104882309F4CAC08091A20181115B
:1016A00008C088E30E942804682F6E7F88E30E94A8
:1016B0000E046BE172E082EE93E00E94CE05EBEF48
:1016C000F2E0C8018F519E4F4C016F0192E0C90EAC
:1016D000D11C21808081863009F4FBC008F0BEC097
:1016E000813009F4ECC0833009F4EFC0F601E20D5B
:1016F000F11DE815F90548F30E94E3016093AB0181
:101700007093AC018093AD019093AE018091D701AD
:10171000882359F01092DC011092DB01F092DD0178
:1017200067ED71E0CB010E94CE057092B301CCCE83
:101730008090AF019090B001A090B101B090B20143
:101740002FEF82169206A206B20609F4BDCE0E94C1
:10175000E3012091AB013091AC014091AD0150917A
:10176000AE01621B730B840B950B681579058A0516
:101770009B0508F4A9CE82EE93E00E945206E09207
:10178000B3010E94E3016093A7017093A8018093C5
:10179000A9019093AA0198CE0E94E3016093A3014E
:1017A0007093A4018093A5019093A601E2EEF3E06B
:1017B000DF012E2D1D922A95E9F790E080E00E942E
:1017C000520688E30E942804682F616088E30E9423
:1017D0000E04F092B301D5CF62E0C8010E94D1049B
:1017E000882329F16BE172E0CE0101960E94CE05BB
:1017F000EBEFF2E0C8018F519E4FBF016E5F7F4F4C
:1018000021813081363361F48EE991E00E94CE056A
:10181000CE0101960E94520682E08093B301B1CFBF
:10182000FB01E20FF11DE817F90738F3F1CF0E9431
:10183000E3012091A7013091A8014091A9015091A5
:10184000AA01621B730B840B950B613177428105F2
:10185000910508F439CE1092B30136CE8A3331F0B7
:101860008F3F09F449CF833309F040CF1092AF0185
:101870001092B0011092B1011092B201F601C601AE
:10188000049620E030E0A9016191542F432F322FBC
:101890002227260F311D411D511D8E179F07A1F7CD
:1018A0002F3FAFEF3A074A075A07B9F42093AF0129
:1018B0003093B0014093B1015093B20117CFB601FC
:1018C0008EED93E00E94CE0511CFB60187ED91E039
:1018D000F9CFB60182ED91E0F5CFA8EEB3E00E941A
:1018E000690E6093AF017093B0018093B101909342
:1018F000B201FCCE84EC91E03BCE0932110508F434
:10190000AFCE8091ED01883009F0AACE8091EE0132
:10191000863009F03EC144E050E062EE73E087E0BB
:1019200092E00E94890E892B09F09ACE8091F601EF
:10193000813029F587EE91E00E94C3051092F501F0
:1019400082E08093F60167EF71E081E092E00E940F
:10195000A40564EB71E087EF91E00E94A4056DEFB0
:1019600071E087E092E00E94CE0562EE73E08DEFB9
:1019700091E00E94CE058AE290E00E9440048091AE
:10198000DD0183FF0DC01091F601123049F464ECC3
:1019900071E087ED91E00E94AC0581111093DD01AB
:1019A0008091D101811110C08091D001882361F014
:1019B0006EEB71E082ED91E00E94AC05882321F08E
:1019C000F092D1011092D0018091CB01811148CECB
:1019D0008091CA01882309F443CE6EEB71E08CEC50
:1019E00091E00E94AC05882309F43ACEF092CB0135
:1019F0001092CA0135CE0633110508F431CE863077
:101A000009F02ECE809105028B3009F04CC044E0E5
:101A100050E06CEC71E08BEF91E00E94890E892B15
:101A200009F01ECE1091100212FF04C085E08093D1
:101A3000D60116CE0E94FC022091D6012230F9F484
:101A4000212F20711271123179F460E090E080E072
:101A50000E941C0688E1809310027092D60190E0EB
:101A600080E00E94A004FCCDF092D60101962223D2
:101A700011F090E080E064E00E941C06F1CD25307A
:101A800009F4EECD10FF0AC0233009F4E9CD69E076
:101A900001960E941C064092D601E2CD60E00097BC
:101AA00009F4DECDE9CF8111DBCD809106028035CE
:101AB00009F0D6CDD0901002D1FE35C01092F101C0
:101AC0006092F2010E940A06B2E1B093100260E057
:101AD00081E090E00E941703109207021092080222
:101AE00080912E018093090210920A028D5F8093EB
:101AF0002E0182E080931702E092180285E0809325
:101B0000190210921A0250920F0280931102309221
:101B1000120222E040E250E06AE182E30E944203C6
:101B20008AE390E07BC0D4FE9BCD0E94FC029093A0
:101B3000E0018093DF01892B31F180910F0290E069
:101B400024E0959587952A95E1F7880F991F880FCE
:101B5000991F82960817190708F482CD4EE151E0CB
:101B60006DE770E087E192E00E943E0E60E08091B8
:101B7000DF019091E0010E941C0629E120931002F0
:101B80008DE191E06ECFD0FE6BCD60E090E080E023
:101B900073CF0932110509F463CD811161CD8091B4
:101BA000EF01853409F05CCD44E050E062EE73E073
:101BB0008FEF91E00E94890E892BA9F044E050E05C
:101BC0006AEB71E08FEF91E00E94890E892B59F04A
:101BD00044E050E062E471E08FEF91E00E94890EF2
:101BE000892B09F03DCD8091F801813009F003CFB8
:101BF00080910302883009F033CD0E940A061092CA
:101C0000030280910502883F28F0909106029F5FB1
:101C100090930602885F80930502C8010E944004E9
:101C20001FCDE6EEF3E01382128288EE93E0A0E08F
:101C3000B0E084839583A683B78384E391E09183A6
:101C4000808385EC90E09587848784EC90E097878B
:101C5000868780EC90E0918B808B81EC90E0938B79
:101C6000828B82EC90E0958B848B86EC90E0978B56
:101C7000868B118E128E138E148E0895FB01DC015B
:101C800002C005900D9241505040D8F70895A1E24E
:101C90001A2EAA1BBB1BFD010DC0AA1FBB1FEE1FE6
:101CA000FF1FA217B307E407F50720F0A21BB30B31
:101CB000E40BF50B661F771F881F991F1A9469F7AD
:101CC00060957095809590959B01AC01BD01CF0109
:101CD00008950E947A0EA59F900DB49F900DA49F29
:101CE000800D911D11240895EE0FFF1F0590F491B2
:101CF000E02D0994A29FB001B39FC001A39F700D76
:101D0000811D1124911DB29F700D811D1124911D03
:101D10000895FB01DC0104C08D910190801921F42C
:101D200041505040C8F7881B990B0895F894FFCF95
:101D300041726475696E6F2D454E4332386A363094
:101D40002D30300000000000000000000000000006
:101D5000C0A80101C0A801C87469692D30310A0109
:101D6000000000008F02EF011C02DC024D022B027A
:101D70003F02FFFFFFFFFFFF0D0A000A5B62616386
:101D80006B536F6F6E5D004661696C656420746FA4
:101D9000206163636573732045746865726E657452
:101DA00020636F6E74726F6C6C65720049503A20DC
:0E1DB000200047573A202000444E533A2000AE
:00000001FF
